{
  "_format": "hh-sol-artifact-1",
  "contractName": "LazyNFT",
  "sourceName": "contracts/LazyNFT.sol",
  "abi": [
    {
      "inputs": [
        {
          "internalType": "address payable",
          "name": "_minter",
          "type": "address"
        }
      ],
      "stateMutability": "nonpayable",
      "type": "constructor"
    },
    {
      "inputs": [],
      "name": "ECDSAInvalidSignature",
      "type": "error"
    },
    {
      "inputs": [
        {
          "internalType": "uint256",
          "name": "length",
          "type": "uint256"
        }
      ],
      "name": "ECDSAInvalidSignatureLength",
      "type": "error"
    },
    {
      "inputs": [
        {
          "internalType": "bytes32",
          "name": "s",
          "type": "bytes32"
        }
      ],
      "name": "ECDSAInvalidSignatureS",
      "type": "error"
    },
    {
      "inputs": [
        {
          "internalType": "address",
          "name": "sender",
          "type": "address"
        },
        {
          "internalType": "uint256",
          "name": "tokenId",
          "type": "uint256"
        },
        {
          "internalType": "address",
          "name": "owner",
          "type": "address"
        }
      ],
      "name": "ERC721IncorrectOwner",
      "type": "error"
    },
    {
      "inputs": [
        {
          "internalType": "address",
          "name": "operator",
          "type": "address"
        },
        {
          "internalType": "uint256",
          "name": "tokenId",
          "type": "uint256"
        }
      ],
      "name": "ERC721InsufficientApproval",
      "type": "error"
    },
    {
      "inputs": [
        {
          "internalType": "address",
          "name": "approver",
          "type": "address"
        }
      ],
      "name": "ERC721InvalidApprover",
      "type": "error"
    },
    {
      "inputs": [
        {
          "internalType": "address",
          "name": "operator",
          "type": "address"
        }
      ],
      "name": "ERC721InvalidOperator",
      "type": "error"
    },
    {
      "inputs": [
        {
          "internalType": "address",
          "name": "owner",
          "type": "address"
        }
      ],
      "name": "ERC721InvalidOwner",
      "type": "error"
    },
    {
      "inputs": [
        {
          "internalType": "address",
          "name": "receiver",
          "type": "address"
        }
      ],
      "name": "ERC721InvalidReceiver",
      "type": "error"
    },
    {
      "inputs": [
        {
          "internalType": "address",
          "name": "sender",
          "type": "address"
        }
      ],
      "name": "ERC721InvalidSender",
      "type": "error"
    },
    {
      "inputs": [
        {
          "internalType": "uint256",
          "name": "tokenId",
          "type": "uint256"
        }
      ],
      "name": "ERC721NonexistentToken",
      "type": "error"
    },
    {
      "inputs": [],
      "name": "InvalidShortString",
      "type": "error"
    },
    {
      "inputs": [
        {
          "internalType": "string",
          "name": "str",
          "type": "string"
        }
      ],
      "name": "StringTooLong",
      "type": "error"
    },
    {
      "anonymous": false,
      "inputs": [
        {
          "indexed": true,
          "internalType": "address",
          "name": "owner",
          "type": "address"
        },
        {
          "indexed": true,
          "internalType": "address",
          "name": "approved",
          "type": "address"
        },
        {
          "indexed": true,
          "internalType": "uint256",
          "name": "tokenId",
          "type": "uint256"
        }
      ],
      "name": "Approval",
      "type": "event"
    },
    {
      "anonymous": false,
      "inputs": [
        {
          "indexed": true,
          "internalType": "address",
          "name": "owner",
          "type": "address"
        },
        {
          "indexed": true,
          "internalType": "address",
          "name": "operator",
          "type": "address"
        },
        {
          "indexed": false,
          "internalType": "bool",
          "name": "approved",
          "type": "bool"
        }
      ],
      "name": "ApprovalForAll",
      "type": "event"
    },
    {
      "anonymous": false,
      "inputs": [
        {
          "indexed": false,
          "internalType": "uint256",
          "name": "_fromTokenId",
          "type": "uint256"
        },
        {
          "indexed": false,
          "internalType": "uint256",
          "name": "_toTokenId",
          "type": "uint256"
        }
      ],
      "name": "BatchMetadataUpdate",
      "type": "event"
    },
    {
      "anonymous": false,
      "inputs": [],
      "name": "EIP712DomainChanged",
      "type": "event"
    },
    {
      "anonymous": false,
      "inputs": [
        {
          "indexed": false,
          "internalType": "uint256",
          "name": "_tokenId",
          "type": "uint256"
        }
      ],
      "name": "MetadataUpdate",
      "type": "event"
    },
    {
      "anonymous": false,
      "inputs": [
        {
          "indexed": true,
          "internalType": "address",
          "name": "to",
          "type": "address"
        },
        {
          "indexed": false,
          "internalType": "uint256",
          "name": "tokenId",
          "type": "uint256"
        }
      ],
      "name": "Minted",
      "type": "event"
    },
    {
      "anonymous": false,
      "inputs": [
        {
          "indexed": true,
          "internalType": "address",
          "name": "from",
          "type": "address"
        },
        {
          "indexed": true,
          "internalType": "address",
          "name": "to",
          "type": "address"
        },
        {
          "indexed": true,
          "internalType": "uint256",
          "name": "tokenId",
          "type": "uint256"
        }
      ],
      "name": "Transfer",
      "type": "event"
    },
    {
      "inputs": [],
      "name": "MINTER_ROLE",
      "outputs": [
        {
          "internalType": "bytes32",
          "name": "",
          "type": "bytes32"
        }
      ],
      "stateMutability": "view",
      "type": "function"
    },
    {
      "inputs": [
        {
          "internalType": "address",
          "name": "to",
          "type": "address"
        },
        {
          "internalType": "uint256",
          "name": "tokenId",
          "type": "uint256"
        }
      ],
      "name": "approve",
      "outputs": [],
      "stateMutability": "nonpayable",
      "type": "function"
    },
    {
      "inputs": [
        {
          "internalType": "address",
          "name": "owner",
          "type": "address"
        }
      ],
      "name": "balanceOf",
      "outputs": [
        {
          "internalType": "uint256",
          "name": "",
          "type": "uint256"
        }
      ],
      "stateMutability": "view",
      "type": "function"
    },
    {
      "inputs": [],
      "name": "eip712Domain",
      "outputs": [
        {
          "internalType": "bytes1",
          "name": "fields",
          "type": "bytes1"
        },
        {
          "internalType": "string",
          "name": "name",
          "type": "string"
        },
        {
          "internalType": "string",
          "name": "version",
          "type": "string"
        },
        {
          "internalType": "uint256",
          "name": "chainId",
          "type": "uint256"
        },
        {
          "internalType": "address",
          "name": "verifyingContract",
          "type": "address"
        },
        {
          "internalType": "bytes32",
          "name": "salt",
          "type": "bytes32"
        },
        {
          "internalType": "uint256[]",
          "name": "extensions",
          "type": "uint256[]"
        }
      ],
      "stateMutability": "view",
      "type": "function"
    },
    {
      "inputs": [
        {
          "internalType": "uint256",
          "name": "tokenId",
          "type": "uint256"
        }
      ],
      "name": "getApproved",
      "outputs": [
        {
          "internalType": "address",
          "name": "",
          "type": "address"
        }
      ],
      "stateMutability": "view",
      "type": "function"
    },
    {
      "inputs": [
        {
          "internalType": "address",
          "name": "owner",
          "type": "address"
        },
        {
          "internalType": "address",
          "name": "operator",
          "type": "address"
        }
      ],
      "name": "isApprovedForAll",
      "outputs": [
        {
          "internalType": "bool",
          "name": "",
          "type": "bool"
        }
      ],
      "stateMutability": "view",
      "type": "function"
    },
    {
      "inputs": [],
      "name": "name",
      "outputs": [
        {
          "internalType": "string",
          "name": "",
          "type": "string"
        }
      ],
      "stateMutability": "view",
      "type": "function"
    },
    {
      "inputs": [
        {
          "internalType": "uint256",
          "name": "tokenId",
          "type": "uint256"
        }
      ],
      "name": "ownerOf",
      "outputs": [
        {
          "internalType": "address",
          "name": "",
          "type": "address"
        }
      ],
      "stateMutability": "view",
      "type": "function"
    },
    {
      "inputs": [
        {
          "components": [
            {
              "internalType": "uint256",
              "name": "tokenId",
              "type": "uint256"
            },
            {
              "internalType": "uint256",
              "name": "price",
              "type": "uint256"
            },
            {
              "internalType": "string",
              "name": "uri",
              "type": "string"
            },
            {
              "internalType": "bytes",
              "name": "signature",
              "type": "bytes"
            }
          ],
          "internalType": "struct LazyNFT.NFTVoucher",
          "name": "voucher",
          "type": "tuple"
        }
      ],
      "name": "redeem",
      "outputs": [],
      "stateMutability": "payable",
      "type": "function"
    },
    {
      "inputs": [
        {
          "internalType": "address",
          "name": "from",
          "type": "address"
        },
        {
          "internalType": "address",
          "name": "to",
          "type": "address"
        },
        {
          "internalType": "uint256",
          "name": "tokenId",
          "type": "uint256"
        }
      ],
      "name": "safeTransferFrom",
      "outputs": [],
      "stateMutability": "nonpayable",
      "type": "function"
    },
    {
      "inputs": [
        {
          "internalType": "address",
          "name": "from",
          "type": "address"
        },
        {
          "internalType": "address",
          "name": "to",
          "type": "address"
        },
        {
          "internalType": "uint256",
          "name": "tokenId",
          "type": "uint256"
        },
        {
          "internalType": "bytes",
          "name": "data",
          "type": "bytes"
        }
      ],
      "name": "safeTransferFrom",
      "outputs": [],
      "stateMutability": "nonpayable",
      "type": "function"
    },
    {
      "inputs": [
        {
          "internalType": "address",
          "name": "operator",
          "type": "address"
        },
        {
          "internalType": "bool",
          "name": "approved",
          "type": "bool"
        }
      ],
      "name": "setApprovalForAll",
      "outputs": [],
      "stateMutability": "nonpayable",
      "type": "function"
    },
    {
      "inputs": [],
      "name": "signer",
      "outputs": [
        {
          "internalType": "address",
          "name": "",
          "type": "address"
        }
      ],
      "stateMutability": "view",
      "type": "function"
    },
    {
      "inputs": [
        {
          "internalType": "bytes4",
          "name": "interfaceId",
          "type": "bytes4"
        }
      ],
      "name": "supportsInterface",
      "outputs": [
        {
          "internalType": "bool",
          "name": "",
          "type": "bool"
        }
      ],
      "stateMutability": "view",
      "type": "function"
    },
    {
      "inputs": [],
      "name": "symbol",
      "outputs": [
        {
          "internalType": "string",
          "name": "",
          "type": "string"
        }
      ],
      "stateMutability": "view",
      "type": "function"
    },
    {
      "inputs": [
        {
          "internalType": "uint256",
          "name": "tokenId",
          "type": "uint256"
        }
      ],
      "name": "tokenURI",
      "outputs": [
        {
          "internalType": "string",
          "name": "",
          "type": "string"
        }
      ],
      "stateMutability": "view",
      "type": "function"
    },
    {
      "inputs": [
        {
          "internalType": "address",
          "name": "from",
          "type": "address"
        },
        {
          "internalType": "address",
          "name": "to",
          "type": "address"
        },
        {
          "internalType": "uint256",
          "name": "tokenId",
          "type": "uint256"
        }
      ],
      "name": "transferFrom",
      "outputs": [],
      "stateMutability": "nonpayable",
      "type": "function"
    }
  ],
  "bytecode": "0x61016060405234801561001157600080fd5b50604051613b93380380613b938339818101604052810190610033919061039e565b6040518060400160405280600f81526020017f4c617a794e46542d566f756368657200000000000000000000000000000000008152506040518060400160405280600181526020017f31000000000000000000000000000000000000000000000000000000000000008152506040518060400160405280600781526020017f4c617a794e4654000000000000000000000000000000000000000000000000008152506040518060400160405280600381526020017f4c415a0000000000000000000000000000000000000000000000000000000000815250816000908161011a919061061b565b50806001908161012a919061061b565b50505061014160078361021e60201b90919060201c565b610120818152505061015d60088261021e60201b90919060201c565b6101408181525050818051906020012060e08181525050808051906020012061010081815250504660a0818152505061019a61026e60201b60201c565b608081815250503073ffffffffffffffffffffffffffffffffffffffff1660c08173ffffffffffffffffffffffffffffffffffffffff1681525050505080600960006101000a81548173ffffffffffffffffffffffffffffffffffffffff021916908373ffffffffffffffffffffffffffffffffffffffff160217905550506108c7565b600060208351101561024057610239836102c960201b60201c565b9050610268565b826102508361033160201b60201c565b600001908161025f919061061b565b5060ff60001b90505b92915050565b60007f8b73c3c69bb8fe3d512ecc4cf759cc79239f7b179b0ffacaa9a75d522b39400f60e0516101005146306040516020016102ae959493929190610736565b60405160208183030381529060405280519060200120905090565b600080829050601f8151111561031657826040517f305a27a900000000000000000000000000000000000000000000000000000000815260040161030d919061080e565b60405180910390fd5b80518161032290610860565b60001c1760001b915050919050565b6000819050919050565b600080fd5b600073ffffffffffffffffffffffffffffffffffffffff82169050919050565b600061036b82610340565b9050919050565b61037b81610360565b811461038657600080fd5b50565b60008151905061039881610372565b92915050565b6000602082840312156103b4576103b361033b565b5b60006103c284828501610389565b91505092915050565b600081519050919050565b7f4e487b7100000000000000000000000000000000000000000000000000000000600052604160045260246000fd5b7f4e487b7100000000000000000000000000000000000000000000000000000000600052602260045260246000fd5b6000600282049050600182168061044c57607f821691505b60208210810361045f5761045e610405565b5b50919050565b60008190508160005260206000209050919050565b60006020601f8301049050919050565b600082821b905092915050565b6000600883026104c77fffffffffffffffffffffffffffffffffffffffffffffffffffffffffffffffff8261048a565b6104d1868361048a565b95508019841693508086168417925050509392505050565b6000819050919050565b6000819050919050565b600061051861051361050e846104e9565b6104f3565b6104e9565b9050919050565b6000819050919050565b610532836104fd565b61054661053e8261051f565b848454610497565b825550505050565b600090565b61055b61054e565b610566818484610529565b505050565b5b8181101561058a5761057f600082610553565b60018101905061056c565b5050565b601f8211156105cf576105a081610465565b6105a98461047a565b810160208510156105b8578190505b6105cc6105c48561047a565b83018261056b565b50505b505050565b600082821c905092915050565b60006105f2600019846008026105d4565b1980831691505092915050565b600061060b83836105e1565b9150826002028217905092915050565b610624826103cb565b67ffffffffffffffff81111561063d5761063c6103d6565b5b6106478254610434565b61065282828561058e565b600060209050601f8311600181146106855760008415610673578287015190505b61067d85826105ff565b8655506106e5565b601f19841661069386610465565b60005b828110156106bb57848901518255600182019150602085019450602081019050610696565b868310156106d857848901516106d4601f8916826105e1565b8355505b6001600288020188555050505b505050505050565b6000819050919050565b610700816106ed565b82525050565b61070f816104e9565b82525050565b600061072082610340565b9050919050565b61073081610715565b82525050565b600060a08201905061074b60008301886106f7565b61075860208301876106f7565b61076560408301866106f7565b6107726060830185610706565b61077f6080830184610727565b9695505050505050565b600082825260208201905092915050565b60005b838110156107b857808201518184015260208101905061079d565b60008484015250505050565b6000601f19601f8301169050919050565b60006107e0826103cb565b6107ea8185610789565b93506107fa81856020860161079a565b610803816107c4565b840191505092915050565b6000602082019050818103600083015261082881846107d5565b905092915050565b600081519050919050565b6000819050602082019050919050565b600061085782516106ed565b80915050919050565b600061086b82610830565b826108758461083b565b90506108808161084b565b925060208210156108c0576108bb7fffffffffffffffffffffffffffffffffffffffffffffffffffffffffffffffff8360200360080261048a565b831692505b5050919050565b60805160a05160c05160e051610100516101205161014051613272610921600039600061103401526000610ff9015260006121520152600061213101526000611d0f01526000611d6501526000611d8e01526132726000f3fe6080604052600436106100fe5760003560e01c806370a0823111610095578063b88d4fde11610064578063b88d4fde1461034d578063c87b56dd14610376578063d5391393146103b3578063e2ca66ef146103de578063e985e9c5146103fa576100fe565b806370a082311461028b57806384b0196e146102c857806395d89b41146102f9578063a22cb46514610324576100fe565b8063238ac933116100d1578063238ac933146101d157806323b872dd146101fc57806342842e0e146102255780636352211e1461024e576100fe565b806301ffc9a71461010357806306fdde0314610140578063081812fc1461016b578063095ea7b3146101a8575b600080fd5b34801561010f57600080fd5b5061012a60048036038101906101259190612302565b610437565b604051610137919061234a565b60405180910390f35b34801561014c57600080fd5b50610155610459565b60405161016291906123f5565b60405180910390f35b34801561017757600080fd5b50610192600480360381019061018d919061244d565b6104eb565b60405161019f91906124bb565b60405180910390f35b3480156101b457600080fd5b506101cf60048036038101906101ca9190612502565b610507565b005b3480156101dd57600080fd5b506101e661051d565b6040516101f391906124bb565b60405180910390f35b34801561020857600080fd5b50610223600480360381019061021e9190612542565b610543565b005b34801561023157600080fd5b5061024c60048036038101906102479190612542565b610645565b005b34801561025a57600080fd5b506102756004803603810190610270919061244d565b610665565b60405161028291906124bb565b60405180910390f35b34801561029757600080fd5b506102b260048036038101906102ad9190612595565b610677565b6040516102bf91906125d1565b60405180910390f35b3480156102d457600080fd5b506102dd610731565b6040516102f097969594939291906126fe565b60405180910390f35b34801561030557600080fd5b5061030e6107db565b60405161031b91906123f5565b60405180910390f35b34801561033057600080fd5b5061034b600480360381019061034691906127ae565b61086d565b005b34801561035957600080fd5b50610374600480360381019061036f9190612923565b610883565b005b34801561038257600080fd5b5061039d6004803603810190610398919061244d565b6108a8565b6040516103aa91906123f5565b60405180910390f35b3480156103bf57600080fd5b506103c86109bb565b6040516103d591906129a6565b60405180910390f35b6103f860048036038101906103f391906129e5565b6109df565b005b34801561040657600080fd5b50610421600480360381019061041c9190612a2e565b610b81565b60405161042e919061234a565b60405180910390f35b600061044282610c15565b80610452575061045182610437565b5b9050919050565b60606000805461046890612a9d565b80601f016020809104026020016040519081016040528092919081815260200182805461049490612a9d565b80156104e15780601f106104b6576101008083540402835291602001916104e1565b820191906000526020600020905b8154815290600101906020018083116104c457829003601f168201915b5050505050905090565b60006104f682610cf7565b5061050082610d7f565b9050919050565b6105198282610514610dbc565b610dc4565b5050565b600960009054906101000a900473ffffffffffffffffffffffffffffffffffffffff1681565b600073ffffffffffffffffffffffffffffffffffffffff168273ffffffffffffffffffffffffffffffffffffffff16036105b55760006040517f64a0ae920000000000000000000000000000000000000000000000000000000081526004016105ac91906124bb565b60405180910390fd5b60006105c983836105c4610dbc565b610dd6565b90508373ffffffffffffffffffffffffffffffffffffffff168173ffffffffffffffffffffffffffffffffffffffff161461063f578382826040517f64283d7b00000000000000000000000000000000000000000000000000000000815260040161063693929190612ace565b60405180910390fd5b50505050565b61066083838360405180602001604052806000815250610883565b505050565b600061067082610cf7565b9050919050565b60008073ffffffffffffffffffffffffffffffffffffffff168273ffffffffffffffffffffffffffffffffffffffff16036106ea5760006040517f89c62b640000000000000000000000000000000000000000000000000000000081526004016106e191906124bb565b60405180910390fd5b600360008373ffffffffffffffffffffffffffffffffffffffff1673ffffffffffffffffffffffffffffffffffffffff168152602001908152602001600020549050919050565b600060608060008060006060610745610ff0565b61074d61102b565b46306000801b600067ffffffffffffffff81111561076e5761076d6127f8565b5b60405190808252806020026020018201604052801561079c5781602001602082028036833780820191505090505b507f0f00000000000000000000000000000000000000000000000000000000000000959493929190965096509650965096509650965090919293949596565b6060600180546107ea90612a9d565b80601f016020809104026020016040519081016040528092919081815260200182805461081690612a9d565b80156108635780601f1061083857610100808354040283529160200191610863565b820191906000526020600020905b81548152906001019060200180831161084657829003601f168201915b5050505050905090565b61087f610878610dbc565b8383611066565b5050565b61088e848484610543565b6108a2610899610dbc565b858585856111d5565b50505050565b60606108b382610cf7565b5060006006600084815260200190815260200160002080546108d490612a9d565b80601f016020809104026020016040519081016040528092919081815260200182805461090090612a9d565b801561094d5780601f106109225761010080835404028352916020019161094d565b820191906000526020600020905b81548152906001019060200180831161093057829003601f168201915b50505050509050600061095e611386565b905060008151036109735781925050506109b6565b6000825111156109a8578082604051602001610990929190612b41565b604051602081830303815290604052925050506109b6565b6109b18461139d565b925050505b919050565b7f9f2df0fed2c77648de5860a4cc508cd0818c85b8b8a1ab4ceeef8d981c8956a681565b6109e881611406565b73ffffffffffffffffffffffffffffffffffffffff16600960009054906101000a900473ffffffffffffffffffffffffffffffffffffffff1673ffffffffffffffffffffffffffffffffffffffff1614610a77576040517f08c379a0000000000000000000000000000000000000000000000000000000008152600401610a6e90612bb1565b60405180910390fd5b8060200135341015610abe576040517f08c379a0000000000000000000000000000000000000000000000000000000008152600401610ab590612c1d565b60405180910390fd5b610acc3382600001356114f1565b610b2c8160000135828060400190610ae49190612c4c565b8080601f016020809104026020016040519081016040528093929190818152602001838380828437600081840152601f19601f8201169050808301925050505050505061150f565b3373ffffffffffffffffffffffffffffffffffffffff167f30385c845b448a36257a6a1716e6ad2e1bc2cbe333cde1e69fe849ad6511adfe8260000135604051610b7691906125d1565b60405180910390a250565b6000600560008473ffffffffffffffffffffffffffffffffffffffff1673ffffffffffffffffffffffffffffffffffffffff16815260200190815260200160002060008373ffffffffffffffffffffffffffffffffffffffff1673ffffffffffffffffffffffffffffffffffffffff16815260200190815260200160002060009054906101000a900460ff16905092915050565b60007f80ac58cd000000000000000000000000000000000000000000000000000000007bffffffffffffffffffffffffffffffffffffffffffffffffffffffff1916827bffffffffffffffffffffffffffffffffffffffffffffffffffffffff19161480610ce057507f5b5e139f000000000000000000000000000000000000000000000000000000007bffffffffffffffffffffffffffffffffffffffffffffffffffffffff1916827bffffffffffffffffffffffffffffffffffffffffffffffffffffffff1916145b80610cf05750610cef8261156b565b5b9050919050565b600080610d03836115d5565b9050600073ffffffffffffffffffffffffffffffffffffffff168173ffffffffffffffffffffffffffffffffffffffff1603610d7657826040517f7e273289000000000000000000000000000000000000000000000000000000008152600401610d6d91906125d1565b60405180910390fd5b80915050919050565b60006004600083815260200190815260200160002060009054906101000a900473ffffffffffffffffffffffffffffffffffffffff169050919050565b600033905090565b610dd18383836001611612565b505050565b600080610de2846115d5565b9050600073ffffffffffffffffffffffffffffffffffffffff168373ffffffffffffffffffffffffffffffffffffffff1614610e2457610e238184866117d7565b5b600073ffffffffffffffffffffffffffffffffffffffff168173ffffffffffffffffffffffffffffffffffffffff1614610eb557610e66600085600080611612565b6001600360008373ffffffffffffffffffffffffffffffffffffffff1673ffffffffffffffffffffffffffffffffffffffff168152602001908152602001600020600082825403925050819055505b600073ffffffffffffffffffffffffffffffffffffffff168573ffffffffffffffffffffffffffffffffffffffff1614610f38576001600360008773ffffffffffffffffffffffffffffffffffffffff1673ffffffffffffffffffffffffffffffffffffffff168152602001908152602001600020600082825401925050819055505b846002600086815260200190815260200160002060006101000a81548173ffffffffffffffffffffffffffffffffffffffff021916908373ffffffffffffffffffffffffffffffffffffffff160217905550838573ffffffffffffffffffffffffffffffffffffffff168273ffffffffffffffffffffffffffffffffffffffff167fddf252ad1be2c89b69c2b068fc378daa952ba7f163c4a11628f55a4df523b3ef60405160405180910390a4809150509392505050565b606061102660077f000000000000000000000000000000000000000000000000000000000000000061189b90919063ffffffff16565b905090565b606061106160087f000000000000000000000000000000000000000000000000000000000000000061189b90919063ffffffff16565b905090565b600073ffffffffffffffffffffffffffffffffffffffff168273ffffffffffffffffffffffffffffffffffffffff16036110d757816040517f5b08ba180000000000000000000000000000000000000000000000000000000081526004016110ce91906124bb565b60405180910390fd5b80600560008573ffffffffffffffffffffffffffffffffffffffff1673ffffffffffffffffffffffffffffffffffffffff16815260200190815260200160002060008473ffffffffffffffffffffffffffffffffffffffff1673ffffffffffffffffffffffffffffffffffffffff16815260200190815260200160002060006101000a81548160ff0219169083151502179055508173ffffffffffffffffffffffffffffffffffffffff168373ffffffffffffffffffffffffffffffffffffffff167f17307eab39ab6107e8899845ad3d59bd9653f200f220920489ca2b5937696c31836040516111c8919061234a565b60405180910390a3505050565b60008373ffffffffffffffffffffffffffffffffffffffff163b111561137f578273ffffffffffffffffffffffffffffffffffffffff1663150b7a02868685856040518563ffffffff1660e01b81526004016112349493929190612d04565b6020604051808303816000875af192505050801561127057506040513d601f19601f8201168201806040525081019061126d9190612d65565b60015b6112f4573d80600081146112a0576040519150601f19603f3d011682016040523d82523d6000602084013e6112a5565b606091505b5060008151036112ec57836040517f64a0ae920000000000000000000000000000000000000000000000000000000081526004016112e391906124bb565b60405180910390fd5b805181602001fd5b63150b7a0260e01b7bffffffffffffffffffffffffffffffffffffffffffffffffffffffff1916817bffffffffffffffffffffffffffffffffffffffffffffffffffffffff19161461137d57836040517f64a0ae9200000000000000000000000000000000000000000000000000000000815260040161137491906124bb565b60405180910390fd5b505b5050505050565b606060405180602001604052806000815250905090565b60606113a882610cf7565b5060006113b3611386565b905060008151116113d357604051806020016040528060008152506113fe565b806113dd8461194b565b6040516020016113ee929190612b41565b6040516020818303038152906040525b915050919050565b60008061148b7f187a5a3cecea031f9efa92ea3d1c193869f456110d6ea18015cab768a37f4b79846000013585602001358680604001906114479190612c4c565b604051611455929190612dc2565b60405180910390206040516020016114709493929190612ddb565b60405160208183030381529060405280519060200120611a19565b90506114e9818480606001906114a19190612e20565b8080601f016020809104026020016040519081016040528093929190818152602001838380828437600081840152601f19601f82011690508083019250505050505050611a33565b915050919050565b61150b828260405180602001604052806000815250611a5f565b5050565b8060066000848152602001908152602001600020908161152f919061302f565b507ff8e1a15aba9398e019f0b49df1a4fde98ee17ae345cb5f6b5e2c27f5033e8ce78260405161155f91906125d1565b60405180910390a15050565b60007f01ffc9a7000000000000000000000000000000000000000000000000000000007bffffffffffffffffffffffffffffffffffffffffffffffffffffffff1916827bffffffffffffffffffffffffffffffffffffffffffffffffffffffff1916149050919050565b60006002600083815260200190815260200160002060009054906101000a900473ffffffffffffffffffffffffffffffffffffffff169050919050565b808061164b5750600073ffffffffffffffffffffffffffffffffffffffff168273ffffffffffffffffffffffffffffffffffffffff1614155b1561177f57600061165b84610cf7565b9050600073ffffffffffffffffffffffffffffffffffffffff168373ffffffffffffffffffffffffffffffffffffffff16141580156116c657508273ffffffffffffffffffffffffffffffffffffffff168173ffffffffffffffffffffffffffffffffffffffff1614155b80156116d957506116d78184610b81565b155b1561171b57826040517fa9fbf51f00000000000000000000000000000000000000000000000000000000815260040161171291906124bb565b60405180910390fd5b811561177d57838573ffffffffffffffffffffffffffffffffffffffff168273ffffffffffffffffffffffffffffffffffffffff167f8c5be1e5ebec7d5bd14f71427d1e84f3dd0314c0f7b2291e5b200ac8c7c3b92560405160405180910390a45b505b836004600085815260200190815260200160002060006101000a81548173ffffffffffffffffffffffffffffffffffffffff021916908373ffffffffffffffffffffffffffffffffffffffff16021790555050505050565b6117e2838383611a83565b61189657600073ffffffffffffffffffffffffffffffffffffffff168373ffffffffffffffffffffffffffffffffffffffff160361185757806040517f7e27328900000000000000000000000000000000000000000000000000000000815260040161184e91906125d1565b60405180910390fd5b81816040517f177e802f00000000000000000000000000000000000000000000000000000000815260040161188d929190613101565b60405180910390fd5b505050565b606060ff60001b83146118b8576118b183611b44565b9050611945565b8180546118c490612a9d565b80601f01602080910402602001604051908101604052809291908181526020018280546118f090612a9d565b801561193d5780601f106119125761010080835404028352916020019161193d565b820191906000526020600020905b81548152906001019060200180831161192057829003601f168201915b505050505090505b92915050565b60606000600161195a84611bb8565b01905060008167ffffffffffffffff811115611979576119786127f8565b5b6040519080825280601f01601f1916602001820160405280156119ab5781602001600182028036833780820191505090505b509050600082602001820190505b600115611a0e578080600190039150507f3031323334353637383961626364656600000000000000000000000000000000600a86061a8153600a8581611a0257611a0161312a565b5b049450600085036119b9575b819350505050919050565b6000611a2c611a26611d0b565b83611dc2565b9050919050565b600080600080611a438686611e03565b925092509250611a538282611e5f565b82935050505092915050565b611a698383611fc3565b611a7e611a74610dbc565b60008585856111d5565b505050565b60008073ffffffffffffffffffffffffffffffffffffffff168373ffffffffffffffffffffffffffffffffffffffff1614158015611b3b57508273ffffffffffffffffffffffffffffffffffffffff168473ffffffffffffffffffffffffffffffffffffffff161480611afc5750611afb8484610b81565b5b80611b3a57508273ffffffffffffffffffffffffffffffffffffffff16611b2283610d7f565b73ffffffffffffffffffffffffffffffffffffffff16145b5b90509392505050565b60606000611b51836120bc565b90506000602067ffffffffffffffff811115611b7057611b6f6127f8565b5b6040519080825280601f01601f191660200182016040528015611ba25781602001600182028036833780820191505090505b5090508181528360208201528092505050919050565b600080600090507a184f03e93ff9f4daa797ed6e38ed64bf6a1f0100000000000000008310611c16577a184f03e93ff9f4daa797ed6e38ed64bf6a1f0100000000000000008381611c0c57611c0b61312a565b5b0492506040810190505b6d04ee2d6d415b85acef81000000008310611c53576d04ee2d6d415b85acef81000000008381611c4957611c4861312a565b5b0492506020810190505b662386f26fc100008310611c8257662386f26fc100008381611c7857611c7761312a565b5b0492506010810190505b6305f5e1008310611cab576305f5e1008381611ca157611ca061312a565b5b0492506008810190505b6127108310611cd0576127108381611cc657611cc561312a565b5b0492506004810190505b60648310611cf35760648381611ce957611ce861312a565b5b0492506002810190505b600a8310611d02576001810190505b80915050919050565b60007f000000000000000000000000000000000000000000000000000000000000000073ffffffffffffffffffffffffffffffffffffffff163073ffffffffffffffffffffffffffffffffffffffff16148015611d8757507f000000000000000000000000000000000000000000000000000000000000000046145b15611db4577f00000000000000000000000000000000000000000000000000000000000000009050611dbf565b611dbc61210c565b90505b90565b60006040517f190100000000000000000000000000000000000000000000000000000000000081528360028201528260228201526042812091505092915050565b60008060006041845103611e485760008060006020870151925060408701519150606087015160001a9050611e3a888285856121a2565b955095509550505050611e58565b60006002855160001b9250925092505b9250925092565b60006003811115611e7357611e72613159565b5b826003811115611e8657611e85613159565b5b0315611fbf5760016003811115611ea057611e9f613159565b5b826003811115611eb357611eb2613159565b5b03611eea576040517ff645eedf00000000000000000000000000000000000000000000000000000000815260040160405180910390fd5b60026003811115611efe57611efd613159565b5b826003811115611f1157611f10613159565b5b03611f56578060001c6040517ffce698f7000000000000000000000000000000000000000000000000000000008152600401611f4d91906125d1565b60405180910390fd5b600380811115611f6957611f68613159565b5b826003811115611f7c57611f7b613159565b5b03611fbe57806040517fd78bce0c000000000000000000000000000000000000000000000000000000008152600401611fb591906129a6565b60405180910390fd5b5b5050565b600073ffffffffffffffffffffffffffffffffffffffff168273ffffffffffffffffffffffffffffffffffffffff16036120355760006040517f64a0ae9200000000000000000000000000000000000000000000000000000000815260040161202c91906124bb565b60405180910390fd5b600061204383836000610dd6565b9050600073ffffffffffffffffffffffffffffffffffffffff168173ffffffffffffffffffffffffffffffffffffffff16146120b75760006040517f73c6ac6e0000000000000000000000000000000000000000000000000000000081526004016120ae91906124bb565b60405180910390fd5b505050565b60008060ff8360001c169050601f811115612103576040517fb3512b0c00000000000000000000000000000000000000000000000000000000815260040160405180910390fd5b80915050919050565b60007f8b73c3c69bb8fe3d512ecc4cf759cc79239f7b179b0ffacaa9a75d522b39400f7f00000000000000000000000000000000000000000000000000000000000000007f00000000000000000000000000000000000000000000000000000000000000004630604051602001612187959493929190613188565b60405160208183030381529060405280519060200120905090565b60008060007f7fffffffffffffffffffffffffffffff5d576e7357a4501ddfe92f46681b20a08460001c11156121e257600060038592509250925061228c565b60006001888888886040516000815260200160405260405161220794939291906131f7565b6020604051602081039080840390855afa158015612229573d6000803e3d6000fd5b505050602060405103519050600073ffffffffffffffffffffffffffffffffffffffff168173ffffffffffffffffffffffffffffffffffffffff160361227d57600060016000801b9350935093505061228c565b8060008060001b935093509350505b9450945094915050565b6000604051905090565b600080fd5b600080fd5b60007fffffffff0000000000000000000000000000000000000000000000000000000082169050919050565b6122df816122aa565b81146122ea57600080fd5b50565b6000813590506122fc816122d6565b92915050565b600060208284031215612318576123176122a0565b5b6000612326848285016122ed565b91505092915050565b60008115159050919050565b6123448161232f565b82525050565b600060208201905061235f600083018461233b565b92915050565b600081519050919050565b600082825260208201905092915050565b60005b8381101561239f578082015181840152602081019050612384565b60008484015250505050565b6000601f19601f8301169050919050565b60006123c782612365565b6123d18185612370565b93506123e1818560208601612381565b6123ea816123ab565b840191505092915050565b6000602082019050818103600083015261240f81846123bc565b905092915050565b6000819050919050565b61242a81612417565b811461243557600080fd5b50565b60008135905061244781612421565b92915050565b600060208284031215612463576124626122a0565b5b600061247184828501612438565b91505092915050565b600073ffffffffffffffffffffffffffffffffffffffff82169050919050565b60006124a58261247a565b9050919050565b6124b58161249a565b82525050565b60006020820190506124d060008301846124ac565b92915050565b6124df8161249a565b81146124ea57600080fd5b50565b6000813590506124fc816124d6565b92915050565b60008060408385031215612519576125186122a0565b5b6000612527858286016124ed565b925050602061253885828601612438565b9150509250929050565b60008060006060848603121561255b5761255a6122a0565b5b6000612569868287016124ed565b935050602061257a868287016124ed565b925050604061258b86828701612438565b9150509250925092565b6000602082840312156125ab576125aa6122a0565b5b60006125b9848285016124ed565b91505092915050565b6125cb81612417565b82525050565b60006020820190506125e660008301846125c2565b92915050565b60007fff0000000000000000000000000000000000000000000000000000000000000082169050919050565b612621816125ec565b82525050565b6000819050919050565b61263a81612627565b82525050565b600081519050919050565b600082825260208201905092915050565b6000819050602082019050919050565b61267581612417565b82525050565b6000612687838361266c565b60208301905092915050565b6000602082019050919050565b60006126ab82612640565b6126b5818561264b565b93506126c08361265c565b8060005b838110156126f15781516126d8888261267b565b97506126e383612693565b9250506001810190506126c4565b5085935050505092915050565b600060e082019050612713600083018a612618565b818103602083015261272581896123bc565b9050818103604083015261273981886123bc565b905061274860608301876125c2565b61275560808301866124ac565b61276260a0830185612631565b81810360c083015261277481846126a0565b905098975050505050505050565b61278b8161232f565b811461279657600080fd5b50565b6000813590506127a881612782565b92915050565b600080604083850312156127c5576127c46122a0565b5b60006127d3858286016124ed565b92505060206127e485828601612799565b9150509250929050565b600080fd5b600080fd5b7f4e487b7100000000000000000000000000000000000000000000000000000000600052604160045260246000fd5b612830826123ab565b810181811067ffffffffffffffff8211171561284f5761284e6127f8565b5b80604052505050565b6000612862612296565b905061286e8282612827565b919050565b600067ffffffffffffffff82111561288e5761288d6127f8565b5b612897826123ab565b9050602081019050919050565b82818337600083830152505050565b60006128c66128c184612873565b612858565b9050828152602081018484840111156128e2576128e16127f3565b5b6128ed8482856128a4565b509392505050565b600082601f83011261290a576129096127ee565b5b813561291a8482602086016128b3565b91505092915050565b6000806000806080858703121561293d5761293c6122a0565b5b600061294b878288016124ed565b945050602061295c878288016124ed565b935050604061296d87828801612438565b925050606085013567ffffffffffffffff81111561298e5761298d6122a5565b5b61299a878288016128f5565b91505092959194509250565b60006020820190506129bb6000830184612631565b92915050565b600080fd5b6000608082840312156129dc576129db6129c1565b5b81905092915050565b6000602082840312156129fb576129fa6122a0565b5b600082013567ffffffffffffffff811115612a1957612a186122a5565b5b612a25848285016129c6565b91505092915050565b60008060408385031215612a4557612a446122a0565b5b6000612a53858286016124ed565b9250506020612a64858286016124ed565b9150509250929050565b7f4e487b7100000000000000000000000000000000000000000000000000000000600052602260045260246000fd5b60006002820490506001821680612ab557607f821691505b602082108103612ac857612ac7612a6e565b5b50919050565b6000606082019050612ae360008301866124ac565b612af060208301856125c2565b612afd60408301846124ac565b949350505050565b600081905092915050565b6000612b1b82612365565b612b258185612b05565b9350612b35818560208601612381565b80840191505092915050565b6000612b4d8285612b10565b9150612b598284612b10565b91508190509392505050565b7f77726f6e67207369676e61747572650000000000000000000000000000000000600082015250565b6000612b9b600f83612370565b9150612ba682612b65565b602082019050919050565b60006020820190508181036000830152612bca81612b8e565b9050919050565b7f496e73756666696369656e742066756e647320746f2072656465656d00000000600082015250565b6000612c07601c83612370565b9150612c1282612bd1565b602082019050919050565b60006020820190508181036000830152612c3681612bfa565b9050919050565b600080fd5b600080fd5b600080fd5b60008083356001602003843603038112612c6957612c68612c3d565b5b80840192508235915067ffffffffffffffff821115612c8b57612c8a612c42565b5b602083019250600182023603831315612ca757612ca6612c47565b5b509250929050565b600081519050919050565b600082825260208201905092915050565b6000612cd682612caf565b612ce08185612cba565b9350612cf0818560208601612381565b612cf9816123ab565b840191505092915050565b6000608082019050612d1960008301876124ac565b612d2660208301866124ac565b612d3360408301856125c2565b8181036060830152612d458184612ccb565b905095945050505050565b600081519050612d5f816122d6565b92915050565b600060208284031215612d7b57612d7a6122a0565b5b6000612d8984828501612d50565b91505092915050565b600081905092915050565b6000612da98385612d92565b9350612db68385846128a4565b82840190509392505050565b6000612dcf828486612d9d565b91508190509392505050565b6000608082019050612df06000830187612631565b612dfd60208301866125c2565b612e0a60408301856125c2565b612e176060830184612631565b95945050505050565b60008083356001602003843603038112612e3d57612e3c612c3d565b5b80840192508235915067ffffffffffffffff821115612e5f57612e5e612c42565b5b602083019250600182023603831315612e7b57612e7a612c47565b5b509250929050565b60008190508160005260206000209050919050565b60006020601f8301049050919050565b600082821b905092915050565b600060088302612ee57fffffffffffffffffffffffffffffffffffffffffffffffffffffffffffffffff82612ea8565b612eef8683612ea8565b95508019841693508086168417925050509392505050565b6000819050919050565b6000612f2c612f27612f2284612417565b612f07565b612417565b9050919050565b6000819050919050565b612f4683612f11565b612f5a612f5282612f33565b848454612eb5565b825550505050565b600090565b612f6f612f62565b612f7a818484612f3d565b505050565b5b81811015612f9e57612f93600082612f67565b600181019050612f80565b5050565b601f821115612fe357612fb481612e83565b612fbd84612e98565b81016020851015612fcc578190505b612fe0612fd885612e98565b830182612f7f565b50505b505050565b600082821c905092915050565b600061300660001984600802612fe8565b1980831691505092915050565b600061301f8383612ff5565b9150826002028217905092915050565b61303882612365565b67ffffffffffffffff811115613051576130506127f8565b5b61305b8254612a9d565b613066828285612fa2565b600060209050601f8311600181146130995760008415613087578287015190505b6130918582613013565b8655506130f9565b601f1984166130a786612e83565b60005b828110156130cf578489015182556001820191506020850194506020810190506130aa565b868310156130ec57848901516130e8601f891682612ff5565b8355505b6001600288020188555050505b505050505050565b600060408201905061311660008301856124ac565b61312360208301846125c2565b9392505050565b7f4e487b7100000000000000000000000000000000000000000000000000000000600052601260045260246000fd5b7f4e487b7100000000000000000000000000000000000000000000000000000000600052602160045260246000fd5b600060a08201905061319d6000830188612631565b6131aa6020830187612631565b6131b76040830186612631565b6131c460608301856125c2565b6131d160808301846124ac565b9695505050505050565b600060ff82169050919050565b6131f1816131db565b82525050565b600060808201905061320c6000830187612631565b61321960208301866131e8565b6132266040830185612631565b6132336060830184612631565b9594505050505056fea26469706673582212207a769b6c6f5a06e0749d0aacf6df7a248de64547446ed7a33d9bbc450f39df1564736f6c634300081b0033",
  "linkReferences": {},
  "deployedLinkReferences": {}
}